{
  "address": "0xaD368692512B1287cb5Cab9c39091f46354F3d7d",
  "abi": [
    {
      "inputs": [
        {
          "internalType": "address",
          "name": "priceFeedAddress",
          "type": "address"
        }
      ],
      "stateMutability": "nonpayable",
      "type": "constructor"
    },
    {
      "inputs": [],
      "name": "NovoFund_NotOwner",
      "type": "error"
    },
    {
      "stateMutability": "payable",
      "type": "fallback"
    },
    {
      "inputs": [],
      "name": "cheaperWithdraw",
      "outputs": [],
      "stateMutability": "payable",
      "type": "function"
    },
    {
      "inputs": [],
      "name": "fund",
      "outputs": [],
      "stateMutability": "payable",
      "type": "function"
    },
    {
      "inputs": [],
      "name": "i_owner",
      "outputs": [
        {
          "internalType": "address",
          "name": "",
          "type": "address"
        }
      ],
      "stateMutability": "view",
      "type": "function"
    },
    {
      "inputs": [],
      "name": "minUSD",
      "outputs": [
        {
          "internalType": "uint256",
          "name": "",
          "type": "uint256"
        }
      ],
      "stateMutability": "view",
      "type": "function"
    },
    {
      "inputs": [
        {
          "internalType": "address",
          "name": "",
          "type": "address"
        }
      ],
      "name": "s_addressToAmountFunded",
      "outputs": [
        {
          "internalType": "uint256",
          "name": "",
          "type": "uint256"
        }
      ],
      "stateMutability": "view",
      "type": "function"
    },
    {
      "inputs": [
        {
          "internalType": "uint256",
          "name": "",
          "type": "uint256"
        }
      ],
      "name": "s_funder",
      "outputs": [
        {
          "internalType": "address",
          "name": "",
          "type": "address"
        }
      ],
      "stateMutability": "view",
      "type": "function"
    },
    {
      "inputs": [],
      "name": "s_priceFeed",
      "outputs": [
        {
          "internalType": "contract AggregatorV3Interface",
          "name": "",
          "type": "address"
        }
      ],
      "stateMutability": "view",
      "type": "function"
    },
    {
      "inputs": [],
      "name": "withdraw",
      "outputs": [],
      "stateMutability": "payable",
      "type": "function"
    },
    {
      "stateMutability": "payable",
      "type": "receive"
    }
  ],
  "transactionHash": "0x813d11d7396c5f20ecb78bc84b54635cc3d99aa6f5eb1ec8f2a70c6dd5feb8a2",
  "args": [
    "0x694AA1769357215DE4FAC081bf1f309aDC325306"
  ],
  "numDeployments": 2,
  "solcInputHash": "e79f088d640c0e88e7eb8cc069639cd5",
  "bytecode": "0x60a06040523480156200001157600080fd5b50604051620011bc380380620011bc83398181016040528101906200003791906200011d565b3373ffffffffffffffffffffffffffffffffffffffff1660808173ffffffffffffffffffffffffffffffffffffffff168152505080600260006101000a81548173ffffffffffffffffffffffffffffffffffffffff021916908373ffffffffffffffffffffffffffffffffffffffff160217905550506200014f565b600080fd5b600073ffffffffffffffffffffffffffffffffffffffff82169050919050565b6000620000e582620000b8565b9050919050565b620000f781620000d8565b81146200010357600080fd5b50565b6000815190506200011781620000ec565b92915050565b600060208284031215620001365762000135620000b3565b5b6000620001468482850162000106565b91505092915050565b608051611043620001796000396000818161032c015281816105ab015261084f01526110436000f3fe60806040526004361061007f5760003560e01c8063b60d42881161004e578063b60d428814610147578063be2693f014610151578063dba6335f1461015b578063dc992aa0146101865761008e565b80630ec3b027146100985780631bf6132d146100c35780633ccfd60b146101005780635b72db0a1461010a5761008e565b3661008e5761008c6101b1565b005b6100966101b1565b005b3480156100a457600080fd5b506100ad6102ec565b6040516100ba9190610a71565b60405180910390f35b3480156100cf57600080fd5b506100ea60048036038101906100e59190610acf565b610312565b6040516100f79190610b15565b60405180910390f35b61010861032a565b005b34801561011657600080fd5b50610131600480360381019061012c9190610b5c565b61056a565b60405161013e9190610b98565b60405180910390f35b61014f6101b1565b005b6101596105a9565b005b34801561016757600080fd5b5061017061084d565b60405161017d9190610b98565b60405180910390f35b34801561019257600080fd5b5061019b610871565b6040516101a89190610b15565b60405180910390f35b6802b5e3af16b18800006101f0600260009054906101000a900473ffffffffffffffffffffffffffffffffffffffff163461087e90919063ffffffff16565b1015610231576040517f08c379a000000000000000000000000000000000000000000000000000000000815260040161022890610c10565b60405180910390fd5b6000339080600181540180825580915050600190039060005260206000200160009091909190916101000a81548173ffffffffffffffffffffffffffffffffffffffff021916908373ffffffffffffffffffffffffffffffffffffffff16021790555034600160003373ffffffffffffffffffffffffffffffffffffffff1673ffffffffffffffffffffffffffffffffffffffff16815260200190815260200160002060008282546102e39190610c5f565b92505081905550565b600260009054906101000a900473ffffffffffffffffffffffffffffffffffffffff1681565b60016020528060005260406000206000915090505481565b7f000000000000000000000000000000000000000000000000000000000000000073ffffffffffffffffffffffffffffffffffffffff163373ffffffffffffffffffffffffffffffffffffffff16146103af576040517f57617ee700000000000000000000000000000000000000000000000000000000815260040160405180910390fd5b60005b60008054905081101561045a5760008082815481106103d4576103d3610c93565b5b9060005260206000200160009054906101000a900473ffffffffffffffffffffffffffffffffffffffff1690506000600160008373ffffffffffffffffffffffffffffffffffffffff1673ffffffffffffffffffffffffffffffffffffffff1681526020019081526020016000208190555050808061045290610cc2565b9150506103b2565b50600067ffffffffffffffff81111561047657610475610d0a565b5b6040519080825280602002602001820160405280156104a45781602001602082028036833780820191505090505b50600090805190602001906104ba92919061094b565b5060003373ffffffffffffffffffffffffffffffffffffffff16476040516104e190610d6a565b60006040518083038185875af1925050503d806000811461051e576040519150601f19603f3d011682016040523d82523d6000602084013e610523565b606091505b5050905080610567576040517f08c379a000000000000000000000000000000000000000000000000000000000815260040161055e90610dcb565b60405180910390fd5b50565b6000818154811061057a57600080fd5b906000526020600020016000915054906101000a900473ffffffffffffffffffffffffffffffffffffffff1681565b7f000000000000000000000000000000000000000000000000000000000000000073ffffffffffffffffffffffffffffffffffffffff163373ffffffffffffffffffffffffffffffffffffffff161461062e576040517f57617ee700000000000000000000000000000000000000000000000000000000815260040160405180910390fd5b6000808054806020026020016040519081016040528092919081815260200182805480156106b157602002820191906000526020600020905b8160009054906101000a900473ffffffffffffffffffffffffffffffffffffffff1673ffffffffffffffffffffffffffffffffffffffff1681526020019060010190808311610667575b5050505050905060005b815181101561073c5760008282815181106106d9576106d8610c93565b5b602002602001015190506000600160008373ffffffffffffffffffffffffffffffffffffffff1673ffffffffffffffffffffffffffffffffffffffff1681526020019081526020016000208190555050808061073490610cc2565b9150506106bb565b50600067ffffffffffffffff81111561075857610757610d0a565b5b6040519080825280602002602001820160405280156107865781602001602082028036833780820191505090505b506000908051906020019061079c92919061094b565b5060003373ffffffffffffffffffffffffffffffffffffffff16476040516107c390610d6a565b60006040518083038185875af1925050503d8060008114610800576040519150601f19603f3d011682016040523d82523d6000602084013e610805565b606091505b5050905080610849576040517f08c379a000000000000000000000000000000000000000000000000000000000815260040161084090610dcb565b60405180910390fd5b5050565b7f000000000000000000000000000000000000000000000000000000000000000081565b6802b5e3af16b188000081565b60008061088a836108ba565b90506000670de0b6b3a764000085836108a39190610deb565b6108ad9190610e5c565b9050809250505092915050565b6000808273ffffffffffffffffffffffffffffffffffffffff1663feaf968c6040518163ffffffff1660e01b815260040160a060405180830381865afa158015610908573d6000803e3d6000fd5b505050506040513d601f19601f8201168201806040525081019061092c9190610f1a565b5050509150506402540be400816109439190610f95565b915050919050565b8280548282559060005260206000209081019282156109c4579160200282015b828111156109c35782518260006101000a81548173ffffffffffffffffffffffffffffffffffffffff021916908373ffffffffffffffffffffffffffffffffffffffff1602179055509160200191906001019061096b565b5b5090506109d191906109d5565b5090565b5b808211156109ee5760008160009055506001016109d6565b5090565b600073ffffffffffffffffffffffffffffffffffffffff82169050919050565b6000819050919050565b6000610a37610a32610a2d846109f2565b610a12565b6109f2565b9050919050565b6000610a4982610a1c565b9050919050565b6000610a5b82610a3e565b9050919050565b610a6b81610a50565b82525050565b6000602082019050610a866000830184610a62565b92915050565b600080fd5b6000610a9c826109f2565b9050919050565b610aac81610a91565b8114610ab757600080fd5b50565b600081359050610ac981610aa3565b92915050565b600060208284031215610ae557610ae4610a8c565b5b6000610af384828501610aba565b91505092915050565b6000819050919050565b610b0f81610afc565b82525050565b6000602082019050610b2a6000830184610b06565b92915050565b610b3981610afc565b8114610b4457600080fd5b50565b600081359050610b5681610b30565b92915050565b600060208284031215610b7257610b71610a8c565b5b6000610b8084828501610b47565b91505092915050565b610b9281610a91565b82525050565b6000602082019050610bad6000830184610b89565b92915050565b600082825260208201905092915050565b7f4469646e27742073656e6420656e6f7567680000000000000000000000000000600082015250565b6000610bfa601283610bb3565b9150610c0582610bc4565b602082019050919050565b60006020820190508181036000830152610c2981610bed565b9050919050565b7f4e487b7100000000000000000000000000000000000000000000000000000000600052601160045260246000fd5b6000610c6a82610afc565b9150610c7583610afc565b9250828201905080821115610c8d57610c8c610c30565b5b92915050565b7f4e487b7100000000000000000000000000000000000000000000000000000000600052603260045260246000fd5b6000610ccd82610afc565b91507fffffffffffffffffffffffffffffffffffffffffffffffffffffffffffffffff8203610cff57610cfe610c30565b5b600182019050919050565b7f4e487b7100000000000000000000000000000000000000000000000000000000600052604160045260246000fd5b600081905092915050565b50565b6000610d54600083610d39565b9150610d5f82610d44565b600082019050919050565b6000610d7582610d47565b9150819050919050565b7f43616c6c206661696c6564000000000000000000000000000000000000000000600082015250565b6000610db5600b83610bb3565b9150610dc082610d7f565b602082019050919050565b60006020820190508181036000830152610de481610da8565b9050919050565b6000610df682610afc565b9150610e0183610afc565b9250828202610e0f81610afc565b91508282048414831517610e2657610e25610c30565b5b5092915050565b7f4e487b7100000000000000000000000000000000000000000000000000000000600052601260045260246000fd5b6000610e6782610afc565b9150610e7283610afc565b925082610e8257610e81610e2d565b5b828204905092915050565b600069ffffffffffffffffffff82169050919050565b610eac81610e8d565b8114610eb757600080fd5b50565b600081519050610ec981610ea3565b92915050565b6000819050919050565b610ee281610ecf565b8114610eed57600080fd5b50565b600081519050610eff81610ed9565b92915050565b600081519050610f1481610b30565b92915050565b600080600080600060a08688031215610f3657610f35610a8c565b5b6000610f4488828901610eba565b9550506020610f5588828901610ef0565b9450506040610f6688828901610f05565b9350506060610f7788828901610f05565b9250506080610f8888828901610eba565b9150509295509295909350565b6000610fa082610ecf565b9150610fab83610ecf565b9250828202610fb981610ecf565b91507f80000000000000000000000000000000000000000000000000000000000000008414600084121615610ff157610ff0610c30565b5b828205841483151761100657611005610c30565b5b509291505056fea264697066735822122054206df86c1c6bfc8c8d2d8d47921e85b69867f0f13ca5bdafe201d066f23ee264736f6c63430008120033",
  "devdoc": {
    "kind": "dev",
    "methods": {},
    "version": 1
  },
  "userdoc": {
    "kind": "user",
    "methods": {},
    "version": 1
  },
  "storageLayout": {
    "storage": [
      {
        "astId": 63,
        "contract": "contracts/NovoFund.sol:NovoFund",
        "label": "s_funder",
        "offset": 0,
        "slot": "0",
        "type": "t_array(t_address)dyn_storage"
      },
      {
        "astId": 67,
        "contract": "contracts/NovoFund.sol:NovoFund",
        "label": "s_addressToAmountFunded",
        "offset": 0,
        "slot": "1",
        "type": "t_mapping(t_address,t_uint256)"
      },
      {
        "astId": 70,
        "contract": "contracts/NovoFund.sol:NovoFund",
        "label": "s_priceFeed",
        "offset": 0,
        "slot": "2",
        "type": "t_contract(AggregatorV3Interface)45"
      }
    ],
    "types": {
      "t_address": {
        "encoding": "inplace",
        "label": "address",
        "numberOfBytes": "20"
      },
      "t_array(t_address)dyn_storage": {
        "base": "t_address",
        "encoding": "dynamic_array",
        "label": "address[]",
        "numberOfBytes": "32"
      },
      "t_contract(AggregatorV3Interface)45": {
        "encoding": "inplace",
        "label": "contract AggregatorV3Interface",
        "numberOfBytes": "20"
      },
      "t_mapping(t_address,t_uint256)": {
        "encoding": "mapping",
        "key": "t_address",
        "label": "mapping(address => uint256)",
        "numberOfBytes": "32",
        "value": "t_uint256"
      },
      "t_uint256": {
        "encoding": "inplace",
        "label": "uint256",
        "numberOfBytes": "32"
      }
    }
  }
}